:020000040800F2
:10000000505000208D020008731D0008371C0008A6
:10001000711D0008E30A00084521000800000000E7
:10002000000000000000000000000000F5010008D2
:10003000E50A000800000000390200087D1D0008E4
:10004000A7020008A7020008A7020008A7020008EC
:10005000A7020008A7020008A7020008A7020008DC
:10006000A7020008A7020008A7020008A7020008CC
:10007000A7020008A7020008A7020008A7020008BC
:10008000A7020008A7020008A7020008A7020008AC
:10009000A7020008A7020008A7020008A70200089C
:1000A000A7020008A7020008A7020008A70200088C
:1000B000A7020008A7020008A7020008A70200087C
:1000C000A7020008A7020008A7020008A70200086C
:1000D000A7020008212100082D210008392100086D
:1000E000A7020008A7020008A7020008A70200084C
:1000F000A7020008A7020008A7020008A70200083C
:10010000A7020008A7020008A7020008A70200082B
:10011000A7020008A7020008F91D0008A7020008AE
:10012000A7020008A7020008A7020008A70200080B
:1001300000F002F800F04EF80AA090E8000C8244AB
:100140008344AAF10107DA4501D100F043F8AFF288
:10015000090EBAE80F0013F0010F18BFFB1A43F0A5
:10016000010318474850000068500000103A24BFAF
:1001700078C878C1FAD8520724BF30C830C144BF0C
:1001800004680C607047000000230024002500264E
:10019000103A28BF78C1FBD8520728BF30C148BFEA
:1001A0000B607047642900F0DF80752900F0DC8067
:1001B000732900F09C83002070471FB500F0FEFA01
:1001C00004000020002104F0ADFF401C60601FBD52
:1001D00010B510BD00F052FC1146FFF7EEFF02F023
:1001E0004CFB00F070FC03B4FFF7F2FF03BC00F01F
:1001F00071FC0000224B19680868B0E8F00F80F32A
:100200000988BFF36F8F4FF0000080F311884EF024
:100210000D0E70470000000006480068006880F37B
:10022000088862B661B6BFF34F8FBFF36F8F00DFF0
:1002300000BF00BF08ED00E0EFF30980BFF36F8F50
:100240000F4B1A6820E9F00F106008B54FF050000E
:1002500080F31188BFF34F8FBFF36F8F04F00EF858
:100260004FF0000080F31188BDE808401968086865
:10027000B0E8F00F80F30988BFF36F8F704700BFBD
:1002800014000020EFF30580704700000948804704
:1002900009480047FEE7FEE7FEE7FEE7FEE7FEE768
:1002A000FEE7FEE7FEE7FEE704480549054A064B80
:1002B00070470000F51D000831010008504A002079
:1002C00050500020504C0020504C002010B500F041
:1002D00075FA001D10BD00BF4D4E00000FB47CB577
:1002E0000C0009AA009001D02044401E084B7B441A
:1002F00069460190089800F0C8FA05461CB1002034
:10030000694600F0D5FA28467CBC5DF814FB000075
:10031000C905000070B50C460546012A05D02878AD
:10032000800600D5EA69002302E0012305E05B1C9A
:10033000934202D2E05C0028F9D1A869E618C01AFD
:10034000A861286A184428622846AFF3008004E0B8
:10035000D5E9012114F8010B9047B442F8D328469F
:10036000AFF3008070BD00002DE9F0410646002487
:1003700010687529314616A510D0AFF3008000280B
:1003800002DA404213A507E031688A0701D512A5B9
:1003900002E0490704D511A5012401E0AFF3008074
:1003A00000210A2206F1240709E0B0FBF2FCB0FBB1
:1003B000F2F302FB1C00303078541846491C002828
:1003C000F3D123462A463046BDE8F04100F0FEB99D
:1003D000000000002D0000002B00000020000000A5
:1003E0002DE9F0410F460546002028622846E968BD
:1003F000884770B3252805D0D5E901219047286AA0
:10040000401CF2E7E9682846002688476C28044625
:100410000AD0682C08D04C2C35D06A2C31D0742CE2
:1004200031D07A2C2FD016E0E96806462846884756
:10043000B042044608D16C2E23D04FF48066284683
:10044000E9688847044606E06C2E03D04FF48076B6
:1004500001E01EE04026E4B1A4F14100192802D8D1
:10046000203446F400663A46214628462E60FFF7BF
:1004700099FE60B1012808D0FF1D27F00707083753
:10048000B4E78026DBE70026D9E73F1DAEE720462C
:10049000B2E7286ABDE8F0812DE9F04791460F46A2
:1004A00080460446002614F8015B2DB1FFF70EFFCD
:1004B0000068405DC007F6D12B2D02D02D2D18D03D
:1004C000641E4A463946204600F015FA27B13968BD
:1004D000A14201D1C7F800804FF0020471050BD58D
:1004E0004042002803DD00F06DF90460A007BDE87C
:1004F000F08746F48066E4E70028F8DA00F062F955
:1005000004606FF00040F2E7401ECAB210F8011F0D
:100510008A4202D00029F9D10020704730B5054643
:100520000B462A4613F8014B12F8010B08B1A04202
:10053000F8D01CB1002802D06D1CF1E7284630BD70
:1005400010B5431C02E010F8011B71B18107FAD10C
:100550004FF0013202C88C1A8C4314EAC211F9D050
:10056000C01A0A0603D0C01E10BDC01A10BD0A046E
:1005700001D0801E10BD0902FCD0401E10BD40EA13
:10058000010370B59B072ED14FF00136042A2AD300
:1005900008C810C99D1B9D43121F15EAC61517D028
:1005A000D8B2E1B2401A50EA056110D198B2A1B2B6
:1005B000401A50EA05410AD123F07F4024F07F41E0
:1005C000401A50EA052102D1180EA0EB146070BD4C
:1005D000A342DBD018BA21BA884201D9012070BDEC
:1005E0004FF0FF3070BD0AB9002070BD10F8013B1C
:1005F00011F8014B63B1A3420AD1521E08D010F882
:10060000013B11F8014B1BB1A34201D1521EEDD1A8
:10061000181B70BD032A40F2308010F0030C00F06C
:10062000158011F8013BBCF1020F624498BF11F82C
:1006300001CB00F8013B38BF11F8013BA2F10402E5
:1006400098BF00F801CB38BF00F8013B11F003035D
:1006500000F02580083AC0F0088051F8043B083AC1
:1006600051F804CBA0E80810F5E7121D5CBF51F863
:10067000043B40F8043BAFF30080D20724BF11F8DD
:10068000013B11F801CB48BF11F8012B24BF00F842
:10069000013B00F801CB48BF00F8012B704710B5B3
:1006A000203AC0F00B80B1E81850203AA0E818506A
:1006B000B1E81850A0E81850BFF4F5AF5FEA027C2B
:1006C00024BFB1E81850A0E8185044BF18C918C09A
:1006D000BDE810405FEA827C24BF51F8043B40F83B
:1006E000043B08BF7047D20728BF31F8023B48BF20
:1006F00011F8012B28BF20F8023B48BF00F8012B5E
:10070000704702F0FF0343EA032242EA024200F08C
:1007100043B94FF0000200B513469446964620397F
:1007200022BFA0E80C50A0E80C50B1F12001BFF4AA
:10073000F7AF090728BFA0E80C5048BF0CC05DF810
:1007400004EB890028BF40F8042B08BF704748BF5E
:1007500020F8022B11F0804F18BF00F8012B7047D2
:1007600010B5044610F0030F08BF11F0030F40F05E
:1007700015804FF0013E121FC0F20E8051F8043B6D
:10078000A3EB0E0C2CEA030C1CEACE1C08BF40F8AD
:10079000043BF0D0A1F1040102F10402521E08DB77
:1007A00011F8013B002B00F8013BF7D1114600F096
:1007B000F1F8204610BD70477047704700487047F9
:1007C000104A002000487047F04900202DE9F0470A
:1007D0000D4699469246044600F1240801688806B1
:1007E00004D5E06921F01001216000E00120A84259
:1007F00001DD471B00E00027A1697A1902EB09001F
:10080000081AA0612078C00602D42046AFF3008009
:10081000002608E0D4E901211AF806009047206A72
:10082000401C761C20624E45F4DB2078C0060AD5B9
:100830002046AFF3008006E0D4E901213020904744
:10084000206A401C2062381EA7F10107F4DC07E093
:10085000D4E9012118F805009047206A401C206265
:10086000281EA5F10105F3DC2046AFF300802078B7
:10087000000602D50220BDE8F0870120FBE700005A
:1008800001694A1C02610878704700B58FB0CDE954
:1008900001310021059105497944CDE90310114644
:1008A0006846FFF79DFD0FB000BD0000E5FFFFFFAC
:1008B0000A6802F8010B0A607047D1E900239A42E6
:1008C00002D2531C0B601070704710B5436913B10E
:1008D000AFF3008001E0FFF71DFD012010BD12788D
:1008E00000F124010A7000224A700122EDE711682C
:1008F0004FF0FF32E9E72DE9F05F824615468B465F
:1009000000270AF10104B9460078302801D09DB1D2
:1009100013E014F8010B0127782803D0582801D0E0
:1009200045B10AE00DB1102D07D1002714F8010BD5
:10093000102502E0082500E00A250026B0460EE05A
:1009400005FB080005FB06F101271FFA80F801EB03
:100950001046B6F5803F00D3B94614F8010B29467E
:1009600000F03EF80028EBDABBF1000F05D00FB124
:10097000641E00E05446CBF80040B9F1000F06D0E9
:10098000FFF720FF02210160C81EBDE8F09F48EA82
:100990000640FAE74FF000020429C0F0128010F080
:1009A000030C3FF4B8AECCF1040CBCF1020F18BF3D
:1009B00000F8012BA8BF20F8022BA1EB0C01FFF7D8
:1009C000AABE5FEAC17C24BF00F8012B00F8012B0E
:1009D00048BF00F8012B704700487047F0490020DD
:1009E0003A2800D2303820F02002412A01D3A2F167
:1009F0003700884201D34FF0FF3070474FF0013C81
:100A000050F8042B51F8043B9A4221D1A2EB0C037D
:100A1000934313EACC1317D150F8042B51F8043B3D
:100A20009A4215D1A2EB0C03934313EACC130BD1DA
:100A300050F8042B51F8043B9A4209D1A2EB0C0365
:100A4000934313EACC13DBD04FF00000704700BF94
:100A5000D01A01BAB1FA81F101F0180122FA01F0BD
:100A6000CB40C1F12001DBB2C0B2C01A2CFA01F3B5
:100A7000D11A914311EAC311E6D170477546FFF7C9
:100A8000ABFFAE4605006946534620F00700854699
:100A900018B020B5FFF708FCBDE820404FF0000675
:100AA0004FF000074FF000084FF0000B21F0070156
:100AB000AC46ACE8C009ACE8C009ACE8C009ACE899
:100AC000C0098D4670470446AFF300802046FFF70B
:100AD0008AFB000001491820ABBEFEE72600020099
:100AE0007047FEE7704772B6FEE710B590F8211028
:100AF0000022022905D00421816380F820200120F2
:100B000010BD01680B6823F00E030B6001680B68D1
:100B100023F001030B6090F84030C46B012101FA0F
:100B200003F3636080F8211080F82020104610BD88
:100B30002DE9F05F90F821100024022903D0042150
:100B40008163012485E001680A6822F00E020A60D0
:100B500001680A6822F001020A603F4E3E4FB2155A
:100B6000DFF8F4C0DFF8F090DFF8ECA0DFF8E8B0D1
:100B7000DFF8E4E00168783F13011502ACF1640C82
:100B8000A9F15009AAF13C0AABF1280BAEF1140E01
:100B90004FF48018B14227D9B9420ED0614512D026
:100BA00049451DD0514518D0594518D0714501D13E
:100BB000424615E0294EB14201D1012210E0274EF4
:100BC0001436B14201D110220AE0244E2836B14237
:100BD00006D0224A3C32914201D11A4600E02A4610
:100BE0001E49091F0A602BE0B94213D0614517D096
:100BF000494522D051451DD059451DD0714501D1DF
:100C000042461AE0B14202D14FF0807215E0134E15
:100C1000B14201D1012210E0104E1436B14201D18F
:100C200010220AE00D4E2836B14206D00B4A3C3263
:100C3000914201D11A4600E02A46074980394A60AC
:100C4000012180F82110002180F82010416B01B1B2
:100C500088472046BDE8F09F80000240080402401B
:100C60002DE9F84FDFF8C8910024A9F1040B2346C1
:100C70000F2709F1040AABF1040ED1E00125A540CC
:100C800006EA0502AA4276D1DFF8A8C14E68A6EBB3
:100C90000C0866452BD00DDC032E34D005DC36B3B2
:100CA000012E19D0022E2FD11BE0112E16D0122E9C
:100CB0002AD119E0B8F5881F19D006DCB8F5803FB5
:100CC00015D0B8F5801F1FD111E0B8F5001F0ED068
:100CD000B8F5041F18D10AE0CB6815E0CB681B1DDE
:100CE00012E0CB6808330FE0CB680C330CE08B6864
:100CF0002BB1012B4FF0080303D0456104E004231E
:100D000002E0056100E00023FF2A01D8064601E069
:100D100000F104064FEA840501D9A5F12005D6F8B3
:100D2000008007FA05FC28EA0C0803FA05F548EAF2
:100D30000508C6F800804D68ED0070D53E4DAE69DF
:100D400046F00106AE61AD6924F0030605F0010529
:100D500000953A4D06EB050CDCF80850A607360F57
:100D600007FA06F825EA0805DFF8D480404503D1E4
:100D70004FF0000825E052E0DFF8C880404502D17E
:100D80004FF001081DE0DFF8C080404502D14FF070
:100D9000020816E0DFF8B480404502D14FF00308A6
:100DA0000FE0DFF8AC80404502D14FF0040808E0C6
:100DB000DFF8A080404502D14FF0050801E04FF078
:100DC000060808FA06F848EA0508CCF808804D68D5
:100DD000D9F80060ED024D4601D5164300E0964378
:100DE0002E604D68DAF80060AD02554601D5164315
:100DF00000E096432E604D68DBF80060AD035D4671
:100E000001D5164300E096432E604D68DEF8006081
:100E1000ED03754601D5164300E096432E60641C31
:100E20000A681646E2407FF429AFBDE8F88F00005B
:100E300008040140000011100010024000000140B1
:100E400000080140000C0140001001400014014066
:100E500000180140001C01400AB1016170470904FB
:100E6000FBE7000001488068704700000400002094
:100E700002488168027811448160704704000020B4
:100E8000074810B5016841F010010160032000F02F
:100E900095F80F2000F006F800F03EF8002010BD95
:100EA0000020024000B5014687B00022362000F045
:100EB00065F8362000F054F81348C16941F010017C
:100EC000C161C06905A900F010000690684600F0F5
:100ED0001DF900F03BF90D494000B0FBF1F10D4860
:100EE0000B4A491E0260416040F2E7320021C0E92E
:100EF0000321816000F002FB10B1012007B000BDAA
:100F0000044800F029FBF9E70010024040420F00BE
:100F100000100040AC0100200F4808B5816941F085
:100F200001018161816901F001010091C16941F014
:100F30008051C161C069002200F0805000900F21F3
:100F4000901E00F01BF80548416821F0E06141F077
:100F50000071416008BD0000001002400000014027
:100F6000002809DB00F01F020121914040098000A8
:100F700000F1E020C0F8001170470000F0B40E4B03
:100F80001B680C46C3F30223C3F10705042D00D9E7
:100F90000425191D072901D2002300E0DB1E0126CC
:100FA00006FA05F1491E214099409E40761E1640E2
:100FB0003143F0BC01F0C7B80CED00E0064900F089
:100FC000070208684FF6FF03184040EA0220034A70
:100FD00010430860704700000CED00E00000FA05C7
:100FE0002DE9F0470F46050061D0434E306800F010
:100FF0000700B84209D2306820F00700384330605B
:10100000306800F00700B84251D128683B4C810796
:1010100012D5400703D5606840F4E060606028782E
:10102000000703D5606840F4605060606068A9689C
:1010300020F0F000084360602878C00728D0686876
:10104000012810D02168022810D0890700292EDA43
:10105000616821F0030101436160FFF703FF8046EF
:1010600041F288390DE021688903EFE78901EDE756
:10107000FFF7F8FEA0EB0801494502D90320BDE8BF
:10108000F0876068696800F00C00B0EB810FEFD169
:10109000306800F00700B8420BD9306820F0070034
:1010A00038433060306800F00700B84201D00120BA
:1010B000E5E72878400705D56068E96820F4E06036
:1010C000084360602878000706D56068296920F425
:1010D000605040EAC100606000F058F86168084A5A
:1010E000C1F30311515CC840064908600648006816
:1010F000FFF7D8FE0020C2E70020024000100240A7
:101100008651000810000020080000200F22026015
:101110000C4A536803F003034360536803F0F00381
:101120008360536803F4E063C36052684FF4E06384
:1011300003EAD20202610448006800F00700086078
:10114000704700000010024000200240044805499A
:1011500000684968044AC1F30221515CC8407047E5
:101160001000002000100240965100080448054974
:1011700000684968044AC1F3C221515CC840704705
:101180001000002000100240965100080E4A5168DD
:101190000E4801F00C03042B11D0082B0FD10C4882
:1011A000C1F38343C903C05C0AD55168084AC1F33F
:1011B0004041921E515C054A5043B0FBF1F070472C
:1011C00004494843704700000010024000127A00B2
:1011D0007651000800093D002DE9F84F040070D059
:1011E0002078C04DC00749D06868C0F3810001284D
:1011F00007D06868C0F38100022809D16868C0037D
:1012000006D52868800339D560680028E7D035E026
:101210006068B0F5803F0BD010B1B0F5A02F11D0B1
:10122000286820F480302860286820F4802002E0BC
:10123000286840F480302860606890B1FFF712FEA3
:1012400006460AE0286840F480202860F0E700BFE6
:10125000FFF708FE801B642873D828688003F7D541
:101260000CE0FFF7FFFD064605E000BFFFF7FAFDC3
:10127000801B6428F0D828688003F7D420789A4E21
:1012800080074FF001094FF0000839D5686810F069
:101290000C0F07D06868C0F38100022809D1686884
:1012A000C00306D42868800714D52069012808D116
:1012B00010E02069B0B1C6F80090FFF7D3FD0746F3
:1012C00005E00AE1FFF7CEFDC01B0228C4D828685C
:1012D0008007F7D52868616920F0F80040EAC1006E
:1012E00028600DE0C6F80080FFF7BCFD074604E06B
:1012F000FFF7B8FDC01B022823D828688007F7D461
:10130000207800072CD57948A169D9B1C0F80090A0
:10131000FFF7A8FD074604E0FFF7A4FDC01B022865
:101320000FD8686A8007F7D571484FF4FA51006802
:10133000B0FBF1F0009000BF0098411E0091FAD27E
:101340000EE080E0C0F80080FFF78CFD074604E067
:10135000FFF788FDC01B022875D8686A8007F7D49C
:101360002078400760D5E8690027C00008D4E86904
:1013700040F08050E861E869012700F0805000905B
:101380005C480168C90513D40168834641F4807143
:101390000160FFF767FD824606E000BFFFF762FDD0
:1013A000A0EB0A0064284ED8DBF80000C005F5D594
:1013B000E06801280AD008B1052813D0286A20F077
:1013C00001002862286A20F0040002E0286A40F048
:1013D00001002862E06841F2883B98B1FFF742FDC6
:1013E00082460BE0286A40F004002862EEE700BF66
:1013F000FFF738FDA0EB0A0159455AD8286A800743
:10140000F6D50CE0FFF72EFD824605E0FFF72AFD3A
:10141000A0EB0A0159454CD8286A8007F6D41FB1C1
:10142000E86920F08050E861E06988B36968C1F339
:101430008101022944D00228C6F8608004D0FFF759
:1014400011FD044638E034E0FFF70CFD074604E0E8
:10145000FFF708FDC01B02282BD828688001F7D4AD
:10146000206AB0F5803F05D16868A16820F400309B
:1014700008436860D4E908010843696821F47411DD
:1014800008436860C6F86090FFF7ECFC044606E08D
:1014900025E000BFFFF7E6FC001B022809D82868FA
:1014A0008001F7D51BE000BFFFF7DCFC001B022822
:1014B00002D90320BDE8F88F28688001F4D40EE03B
:1014C0000128F7D06868226A00F48031914204D183
:1014D000616A00F47010884201D00120EAE7002020
:1014E000E8E700000010024000004242800442424F
:1014F00010000020007000407047704710B50400D5
:1015000003D094F83D0010B107E0012010BD002089
:1015100084F83C00204600F01EF8022084F83D00CC
:10152000211D206800F06EFC012084F8460084F83C
:101530003E0084F83F0084F8400084F8410084F8BD
:10154000420084F8430084F8440084F8450084F89D
:101550003D00002010BD704790F83D10012901D0DA
:1015600001207047022180F83D100168CA6842F0EE
:101570000102CA6000680E4988420ED00D498842B7
:101580000BD0B0F1804F08D00B49884205D00B49F1
:10159000884202D00A49884204D1816801F00701DB
:1015A000062903D0016841F0010101600020704765
:1015B000002C0140003401400004004000080040BD
:1015C000000C004070472DE9F04104460068C668F1
:1015D00005694FF00007A90713D5B10711D5F91E0A
:1015E000016101202077206880698007204602D0B1
:1015F000FFF7E8FF04E000F07EF8204600F07CF8FA
:101600002777680716D5700714D521686FF0040096
:101610000861022020772068806910F4407F20460E
:1016200002D0FFF7CFFF04E000F065F8204600F09D
:1016300063F82777280715D5300713D521686FF091
:1016400008000861042020772068C06980072046D0
:1016500002D0FFF7B7FF04E000F04DF8204600F09D
:101660004BF82777E80616D5F00614D521686FF0F9
:1016700010000861082020772068C06910F4407FBE
:10168000204602D0FFF79EFF04E000F034F8204629
:1016900000F032F82777E80708D0F00706D0216875
:1016A0006FF001000861204600F028F8280608D5F0
:1016B000300606D521686FF0800008612046FFF7EC
:1016C0001BFF680608D5700606D521686FF040003C
:1016D0000861204600F01CF8A8060AD5B00608D517
:1016E00021686FF0200008612046BDE8F041FFF757
:1016F00004BFBDE8F08170477047000000680349EF
:10170000884201D1FFF7B4BB7047000000100040D1
:10171000704770470849884201D1084908E00849E4
:10172000884201D1074903E00749884202D10749AD
:1017300002F0D6B870470000D4000020DC4300203F
:1017400064010020E24500201C010020E847002041
:10175000F8B5016804460868CA684B6910F00F0FB5
:101760004FF000055AD003F0010602F4907737439A
:1017700065D0C10705D0D10503D5616C41F00101E9
:101780006164410705D5D90703D0616C41F00201BE
:101790006164810705D5D90703D0616C41F004016C
:1017A0006164010707D502F02001314303D0616C69
:1017B00041F008016164616C00293BD0800604D5CA
:1017C000900602D5204600F09AFB20684069616CC3
:1017D000C0F3801001F00801014320462BD000F037
:1017E00067FB20684069400621D52068143050E826
:1017F000001F21F0400140E80012002AF5D1E06B03
:10180000A8B16D494163E06BFFF792F9002811D050
:10181000E06B416B01B0BDE8F040084783060ED590
:1018200093060CD52046BDE8F84000F068BB204682
:10183000FFF770FFF8BDFFF76DFF6564F8BD266B1D
:101840002023012E7CD1C6067AD5D60678D5086825
:101850004868009048694FF00206400640D5E16BA9
:10186000086840680004000CE8D0A28D8242E5D9E7
:10187000E085886920282DD020680C3050E8001FB2
:1018800021F4807140E80012002AF5D1216814315A
:1018900051E8000F20F0010041E80002002AF5D1D4
:1018A0002068143050E8001F21F0400140E8001289
:1018B000002AF5D184F84230256320680C3050E8C6
:1018C000001F21F0100140E80012002AF5D1E06B62
:1018D000FFF70BF96663A08DE18D401A81B22AE013
:1018E000A08DE18D401A81B2E08D0028A6D000299C
:1018F000A4D022680C3252E8000F20F4907042E825
:101900000007002FF5D12068143050E8002F22F096
:10191000010240E80027002FF5D184F8423025630A
:1019200020680C3050E8002F22F0100240E800231D
:10193000002BF5D166632046FFF7EBFEF8BDFFE70D
:1019400005062BD5150629D594F841002128F5D197
:10195000A068B0F5805F01D12069B0B1206A411C58
:101960002162216800784860E08C401E0004000C71
:10197000E084E3D12068C16821F08001C160206863
:10198000C16841F04001C160D8E7206A0088C0F317
:1019900008004860206A801C2062E5E74006CDD53B
:1019A0005006CBD5CA68204622F04002CA6084F8AF
:1019B000413000F03FF9C1E7A11E000870B50400F6
:1019C00004D094F84100002510B106E0012070BD5C
:1019D00084F84050204600F023F8242084F8410089
:1019E0002068C16821F40051C160204600F0E8FA87
:1019F0002068016921F4904101612068416921F06A
:101A00002A0141612068C16841F40051C1606564E8
:101A1000202084F8410084F842006563002070BDF6
:101A2000F0B585B0002400940194029403940368F7
:101A3000324F022032490322324D4602BB421AD1B4
:101A40008B6943F480438B618B6903F48043049377
:101A50008B6943F004038B618969039201F00401EF
:101A600004910102CDE9001069462846FFF7F8F815
:101A7000CDE900641CE0244FBB4220D1CB6943F484
:101A80000033CB61CB6903F4003304938B6943F0DB
:101A900004038B618969039201F00401049104211C
:101AA000CDE9001069462846FFF7DAF8082022E061
:101AB000694628460294FFF7D3F805B0F0BD134DF0
:101AC000AB42FAD1CB6943F48023CB61CB6903F4F9
:101AD000802304938B6943F008038B6189690C4D63
:101AE00001F00801CDE90321CDE9006069462846EF
:101AF000FFF7B6F8E814CDE90004D9E70038014053
:101B0000001002400008014000440040004800402E
:101B1000000C014090F84230202B01D00220704789
:101B200021B11AB10023036300F0A6BA0120704767
:101B300010B504461148844206D1114890F80412A9
:101B400001F079FE0E4912E00E48844206D10E489B
:101B500090F8041201F06FFE0B4908E00B48844234
:101B60000AD10B4890F8041201F065FE084920469E
:101B7000BDE8104001F0B4BE10BD0000D40000204C
:101B8000DC43002064010020E24500201C0100200D
:101B9000E84700202DE9F843044690F841009846B4
:101BA00016460D46202802D00220BDE8F88385B1F4
:101BB0007EB100206064212084F84100FFF752F9D3
:101BC000A6848146E684A0682027B0F5805F02D015
:101BD00003E00120E9E7206910B12E4600250EE060
:101BE00000260CE08021204600F061FAA8B9C6B1B9
:101BF00016F8010B21684860E08C401EE084E08C00
:101C00004B464FF00002CDF800800028EAD14FF09B
:101C10004001204600F04BFA40B184F841700320A7
:101C2000C3E735F8020BC0F30800E3E784F841701E
:101C30000020BAE77047FEE710B5044A00210448C7
:101C400001F03CF80349086010BD00005051000845
:101C5000751D00080000002070B586B000241848EB
:101C60000094019402940394816941F02001816100
:101C7000816901F020010491816941F004018161D1
:101C8000816901F004010491816941F008018161D9
:101C900080690C4E00F008004FF48075049000221B
:101CA00029463046FFF7D8F801200095CDE9010418
:101CB0000220039069463046FEF7D2FF06B070BDA1
:101CC00000100240000801400C4810B50A490160AC
:101CD0004FF4E1314160002181600C22C160C0E914
:101CE00004128161C161FFF769FE002803D0BDE8DD
:101CF0001040FEF7F8BE10BD00380140D4000020AF
:101D00000C4810B50A4901604FF4E13141600021EF
:101D100081600C22C160C0E904128161C161FFF7DA
:101D20004DFE002803D0BDE81040FEF7DCBE10BD1C
:101D3000004400401C0100200C4810B50A49016015
:101D40004FF4E1314160002181600C22C160C0E9A3
:101D500004128161C161FFF731FE002803D0BDE8A4
:101D60001040FEF7C0BE10BD0048004064010020D6
:101D7000FEE7FEE7012000F065FFFBE710B54FF03E
:101D8000E020006902F0C2FF012803D0BDE8104046
:101D900002F0D2BB10BD30B58FB028216846FEF7E7
:101DA000B8FC14210AA8FEF7B4FC01210804CDE90F
:101DB00000100024029402250491CDE907504FF44D
:101DC000E01009906846FFF707FA08B172B6FEE71F
:101DD0000F20CDE90A054FF48060CDE90C400221C7
:101DE0000AA80E94FFF7FCF8002801D072B6FEE7AF
:101DF0000FB030BD704700000148FFF7E4BB0000A2
:101E0000AC010020F0B50268204C214D214E224F3C
:101E1000224B4FF0804CA04209D0984207D0604539
:101E200005D0A84203D0B04201D0B84204D122F07C
:101E3000700E4A6842EA0E02A04209D0984207D0CA
:101E4000604505D0A84203D0B04201D0B84203D1CA
:101E500022F44075CA682A434D6922F080022A4361
:101E600002608A68C2620A688262A04201D0984217
:101E700001D109690163012141610169C90703D0E9
:101E8000016921F001010161F0BD0000002C014059
:101E90000004004000080040000C004000340140F5
:101EA00010B5406A0021C185C184FFF733FC10BD25
:101EB00001680C3151E8002F22F4907241E80023B0
:101EC000002BF5D10168143151E8002F22F00102F6
:101ED00041E80023002BF5D1016B012909D10168EC
:101EE0000C3151E8002F22F0100241E80023002BB2
:101EF000F5D1202180F8421000210163704708B518
:101F000090F84210222901D0022008BD82684FF4C7
:101F100080539A4201D1016921B1816A9A421BD052
:101F20004AB10AE00268816A5268C2F308020A8074
:101F3000816A891C08E0026972B10268526802F085
:101F40007F020A70816A491C8162C18D491E0904A1
:101F5000090CC18503D01BE002685268F1E70168F3
:101F6000CA6822F02002CA600168CA6822F480723E
:101F7000CA6001684A6922F001024A61202180F8A2
:101F8000421000214163026B012A03D0FFF7D0FD0C
:101F9000002008BD016301680C3151E8002F22F0D8
:101FA000100241E80023002BF5D101680A68D2062F
:101FB00002D50A6849680091818DFFF7AAFBE7E71F
:101FC00070B5044600680169E26821F4405111438C
:101FD00001612169A0680843616908432168CA68F2
:101FE00041F20C639A430243CA6020684169A269C6
:101FF00021F44071114341611E492068884202D199
:10200000FFF7B4F801E0FFF7A1F800EBC00101EB26
:102010000012606864218000B2FBF0F3B3FBF1F3BF
:102020006FF018067343B2FBF0F5B2FBF0F605EB68
:102030008305322303EB0515B5FBF1F5B6FBF1F68D
:1020400005F0F00505EB0615B2FBF0F6B2FBF0F07B
:10205000B0FBF1F06FF01802504306EB800003EB89
:102060000010B0FBF1F0216800F00F0028448860F8
:1020700070BD00000038014081628285C285002168
:102080004164222180F84210016921B10168CA68C7
:1020900042F48072CA6001684A6942F001024A61F2
:1020A0000068C16841F02001C160002070472DE93F
:1020B000F843984617460D460446089E24E0701CD7
:1020C00022D0FEF7CFFEA0EB0800B0421AD8CEB166
:1020D0002068C168490717D5802D15D0402D13D031
:1020E0000168C94309070FD40168002540680090C2
:1020F0002046FFF7DDFE0820606484F84050012090
:10210000BDE8F8830320FBE72068006835EA00009B
:1021100004D00020B842D2D00020F1E70120F9E736
:102120000148FFF715BB0000D40000200148FFF76D
:102130000FBB00001C0100200148FFF709BB000095
:1021400064010020FEE70907090E002804DB00F106
:10215000E02080F80014704700F00F0000F1E0204C
:1021600080F8141D7047000010B504001FD02078BF
:10217000E8B1052211A12046FEF701FAB8B1052207
:1021800010A12046FEF7FBF988B105220FA12046D9
:10219000FEF7F5F958B105220EA12046FEF7EFF93A
:1021A00038B105220DA12046FEF7E9F918B10DA0BE
:1021B00010BD0EA010BD0FA010BD00003436303091
:1021C0003000000034363030320000003436303019
:1021D0003700000034363030310000003436303003
:1021E00033000000434D4E4554000000554E494E0B
:1021F0004554000043544E455400000010B50400FF
:102200001FD02078E8B1052211A12046FEF7B7F9CA
:10221000B8B1052210A12046FEF7B1F988B1052218
:102220000FA12046FEF7ABF958B105220EA12046BA
:10223000FEF7A5F938B105220DA12046FEF79FF95A
:1022400018B10DA010BD0EA010BD0FA010BD000054
:102250003436303030000000343630303200000088
:102260003436303037000000343630303100000072
:102270003436303033000000434D4E4554000000EA
:10228000554E494E4554000043544E4554000000FD
:1022900070B50C00064607D01D4D4FF4FA61286852
:1022A00002F0E6FB012801D0002070BD002000F004
:1022B0002BFB012000F028FB304601F0FFFB002340
:1022C0001A461946286802F005FA124800257F22AE
:1022D000416821608168616001782174417861748E
:1022E0008178A174C078E0740B4904F11400E560B2
:1022F000FEF736FA084984F893507F22803104F1C2
:102300009400FEF72DFA84F813510120A56070BDEA
:10231000CC000020B8000020CC3E002030B585B0B5
:1023200004000DD06A46D4F8001201F025FA50B12D
:10233000104D4FF4FA61286802F09AFB012806D08C
:10234000002005B030BD0CA000F020FAF8E7012015
:1023500001F088FA2046D4F8001201F0CFFB0020EB
:1023600001F080FA00231A461946286802F0B2F9F3
:102370000120E6E7CC000020435243206F72206624
:1023800072616D6520666F726D6174206572726F27
:102390007200000038B504004FF00000009007D034
:1023A0000F4D4FF4FA61286802F062FB012801D05A
:1023B000002038BD684600F0A1FB0098012801D03C
:1023C000052804D12046D4F8001201F08DFB00232B
:1023D0001A461946286802F07DF9012038BD000030
:1023E000CC000020F0B51E4F0C46054689B01AA659
:1023F00041F28831386802F03BFB01282AD1284697
:1024000000F004FC90B1284601F058FB20216846FA
:1024100000F01AFB18B16846FFF7F0FE064630469A
:1024200000F0B6FB0121084600F0D2FB00231A465B
:102430001946386802F04EF9FEF714FD0246A04234
:1024400001D3131B02E0E04383185B1C214628469E
:1024500000F0BEF909B0F0BD434D4E4554000000F8
:10246000CC00002070B501F055FC01F03DF901F001
:1024700037FF164C4FF401750022206029460820D2
:1024800002F090F8606000222946082002F08AF8E5
:10249000A06000224FF48A71082002F083F8E06007
:1024A000102002F07BF801462061606802F05AF8C3
:1024B0002169A06802F056F8002000F0A7FB002078
:1024C00000F002FABDE8704000F002B8940000206D
:1024D0002DE9FC4103220021012002F063F82A4D7E
:1024E000686010B1002102F0C3FA28480090002370
:1024F0000122642126A002F097FDA860284800234D
:1025000000901A46274928A002F08EFD03260024D9
:10251000E860CDE90064F70123463A4625A1264844
:1025200002F09CFB0420CDE90004C201002323A19A
:10253000254802F093FBCDE9006400233A4623A12D
:10254000244802F08BFB0220CDE90004C2010023E5
:1025500021A1244802F082FB0120CDE900040023E0
:102560003A4621A1224802F079FBA868002808D049
:1025700002F0DAFB0246009400230121A86802F071
:102580009DFDBDE8FC810000A8000020A5290008F1
:102590006D6F6E69746F725F7469636B0000000029
:1025A000F5380008C0D401007377697463685F6C04
:1025B0006F636B0072780000053A000873696D5F05
:1025C0007377697463680000493A0008666F727730
:1025D00061726400653900086465636973696F6ED0
:1025E00000000000013900086D6F6E69746F7200A1
:1025F000C139000810B5002837D090F8062242B142
:10260000D0F80022B2F5007F0CD300BF00F030F804
:102610002CE068292AD101700121C0F8001280F84D
:10262000061223E0531CC0F800328154D0F8002277
:10263000042A10D1C1786829E8D1B0F801108908BE
:10264000062901D2002100E0491DA0F804120C392E
:10265000B1F5FA7FDAD8B0F8041239B18A4205D35D
:10266000411E515C1629D1D1012010BD002010BDA2
:10267000002806D00021C0F80012A0F8041280F84B
:10268000061270472DE9F843884616463A21FDF7B1
:102690003BFF002518B316B3401C01F013F90446A4
:1026A000002719E00A22694620460097FDF7F4FE4C
:1026B00001460098844212D0454503D10120316083
:1026C000BDE8F8836D1C017849B12C2900F10100A7
:1026D000F9D101F0F7F8044620780028E2D1002073
:1026E000EEE700002DE9F047A0B09A4615460C46EB
:1026F000060020D0FCB1F5B100272770384601F064
:1027000007FA3046FDF71CFF0146304601F0ECF9B0
:1027100001211AA001F0E8F927E0E9462046FDF77B
:102720000FFF80464846FDF70BFF024608EB020606
:10273000B01CA84203D3002020B0BDE8F08704EB12
:1027400008004946FDF766FF0A21A15530190CA182
:1027500047706846FDF7E2FE08B10120ECE709A1E9
:102760006846FDF7DBFE0028E5D152468021684629
:1027700001F0A2F90028D0D1DEE700000D00000032
:102780004F4B00004552524F5200000000B599B027
:10279000002811D0034609A260216846FDF79EFD7E
:1027A000002809DD602800DD602082B24FF47A73D2
:1027B00069460648FFF7EEF919B000BD5147445786
:1027C0002064726F703A2025730D0A00D400002037
:1027D00000B5A3B0B0B10CA08DE80E0003460FA267
:1027E000802103A8FDF77AFD002809DD802800DD9F
:1027F000802082B24FF47A7303A91448FFF7CAF914
:1028000023B000BD12A0E7E75377697463683A20EC
:102810004D61696E2D3E536C6176650025732C20E9
:1028200053746172743A20256C75206D732C2045A9
:102830006E643A20256C75206D732C20436F737481
:102840003A20256C75206D730D0A0000D40000201D
:102850005377697463683A20536C6176652D3E4DF9
:1028600061696E0010B5044600220621FEF786FB62
:102870002046BDE81040FEF773BBFEF701FBFFF7F3
:102880008AFAFFF7E9F9FFF71FFAFFF739FAFFF7BE
:1028900053FA01F00FF900F0DDFFFFF7E3FD00F060
:1028A000DFF9FFF7C9F900F0EDF9FEE7034800781A
:1028B00008B103487047034870470000C400002077
:1028C000E2450020DC43002010B588B00CA401F0E4
:1028D000F5F82021684600F0B7F818B16846FFF710
:1028E00043FC0446204600F053F9002806D001219D
:1028F000084600F06DF9002800D0012008B010BD96
:10290000434D4E45540000002DE9F041A2B0002493
:1029100006462194802168462094FDF7FAFE304651
:1029200001F0CCF8304601F005F921A800F00CF9CF
:102930008021684600F042F8DFF86080184D08F109
:10294000800798B1012046B168707F2269463846F9
:10295000FDF706FF87F87F400BE028707F2269466D
:102960000E48FDF7FDFE88F87F400FE05EB16C7009
:102970003C7020A800F09EF82198A8602098E8708C
:1029800022B0BDE8F0812C7088F8004020A800F04B
:1029900091F8219868602098A870F1E7CC3E00205B
:1029A000B800002004484068002804D000231A46DC
:1029B000194601F08FBE7047A80000202DE9F043B2
:1029C000C1B00E4605464FF4FA634FF48072694673
:1029D00019A0FFF787FE002811D019A16846894683
:1029E000FDF79CFD4FF000040700A04606D02DB176
:1029F00026B14846FDF7A4FDC21904E0404641B0A7
:102A0000BDE8F083521C10782028FBD03A28F9D07A
:102A100002E02855521C641C10780D2805D00A28A5
:102A200003D010B1611CB142F3D305F804800CB19E
:102A30000120E4E70020E2E741542B4343494400EE
:102A40002B4343494400000030B5C1B00D46044655
:102A50004FF4FA634FF48072694614A0FFF742FE08
:102A6000002819D000206A46002C15D0002D13D064
:102A700017E03039092913D8002307E012F8011BA9
:102A8000E15411785B1C3039092902D8591CA9423C
:102A9000F4D3E05413B1012041B030BD0020FBE776
:102AA000521C11780029E4D1F6E7000041542B4371
:102AB000494D490010B5C0B0040013D04FF4FA637B
:102AC0004FF48072694608A0FFF70CFE002807D07B
:102AD00008A16846FDF722FD00B101202060012019
:102AE00040B010BD0020FBE741542B4350494E3FFE
:102AF00000000000524541445900000010B5C2B02A
:102B000004004FF00000409015D04FF4FA634FF4EA
:102B10008072694609A0FFF7E5FD002809D040AAA8
:102B200001216846FFF7AEFD002802D040982060E2
:102B3000012042B010BD0020FBE7000041542B43B0
:102B40005245473F0000000010B5C2B004004FF0EE
:102B50000000409015D04FF4FA634FF4807269463C
:102B600009A0FFF7BFFD002809D040AA0021684650
:102B7000FFF788FD002802D040982060012042B075
:102B800010BD0020FBE7000041542B4353510000CF
:102B900000B5E1B000280DD0034607A280216846A9
:102BA000FDF79CFB40F6B8334FF4807220A96846CD
:102BB000FFF798FD61B000BD41542B434744434F9C
:102BC0004E543D312C224950222C222573220000E4
:102BD00000B5E1B00346009107A2802101A8FDF7EE
:102BE0007DFB41F288334FF4807221A901A8FFF7E1
:102BF00079FD61B000BD00004154244D594E45544B
:102C00004143543D25752C257500000000B5E1B009
:102C1000034607A280216846FDF760FB41F2883336
:102C20004FF4807220A96846FFF75CFD61B000BDDB
:102C30004154244D5953494D5357495443483D2518
:102C40006400000010B5EFF3058111B16FF00504C9
:102C500003E0002408B101F0B5F9204610BD0000E2
:102C6000EFF3058010B16FF005007047044801686C
:102C700011B14FF0FF307047012101600020704713
:102C80006400002010B5EFF3058010B16FF005006F
:102C900010BD08480168012902D04FF0FF3010BD77
:102CA000054A002182F8141D0221016001F09AFA00
:102CB000002010BD640000200BE000E02DE9FF4182
:102CC0000B464FF00005EFF30581039549BB40B378
:102CD0008027182100244AB3166806B13446966945
:102CE0001EB13146761E382E02D21679F60703D071
:102CF000002004B0BDE8F081566906B1B708D2F8EB
:102D000008C0BCF1000F0DD0D5685C2D18D3126936
:102D10003AB136B18DE806103A46214601F0CBFFB4
:102D200003900DE0D6685EB912694AB903AACDE9ED
:102D30000012BAB2214601F091FF012800D003959C
:102D40000398D6E72DE9F041134C0F460546E66897
:102D50002068001D00F0F7FF681C07D137B121681B
:102D6000BDE8F0410D48091D01F048B82068354420
:102D7000B5424560216805D2A06BBDE8F041091D50
:102D800001F024B8606B091D01F020F8A06A8542AB
:102D900000D2A562BDE8F08114000020E406002006
:102DA0002DE9F041054601F035F82D4CA068401C96
:102DB000A06020682B4F10B1606930B32BE0256014
:102DC000A068012827D1002606EB860007EB8000CB
:102DD00000F0EEFF761C382EF6D3234800F0E8FF13
:102DE0002148143000F0E4FF1F48283000F0E0FFD5
:102DF0001D483C3000F0DCFF1B48503000F0D8FF8D
:102E0000194860631430A06305E02068E96AC06A6D
:102E1000884200D82560606A401C60626864E86A85
:102E20002169884200D9206100EB800007EB800017
:102E3000291D00F0E3FF01F00DF8606900280CD0B7
:102E40002068E96AC06A884207D208494FF080507A
:102E50000860BFF34F8FBFF36F8FBDE8F0810000B4
:102E600014000020340200209406002004ED00E04D
:102E700038B500F0CFFF104C2068C8B90F4800F0FB
:102E800097FF0E48143000F093FF0C48E0601430B8
:102E900020610A4B0020F43B009003F15402102102
:102EA0000A2001F0A0FB206010B105A101F054F848
:102EB000BDE8384000F0CEBF50000020EC070020F5
:102EC000546D72510000000030B4026C0B46002AB1
:102ED0000BD0C1681144C1608468A14201D301686C
:102EE000C16030BC1846FDF795BB30BC70472DE97A
:102EF000F041856B174604460026026C82B1C7B1CB
:102F0000E068FDF787FBE168206C091AE160226840
:102F1000914202D2A168081AE060022F16D017E091
:102F20002068A8B9A06801F069FF06460020A060EB
:102F30000EE06068FDF76EFB216C6068084460601D
:102F4000A168884204D32068606001E005B16D1E6D
:102F50006D1CA5633046BDE8F08110B5044690F8BD
:102F6000590058B101280CD002280FD0502080F30E
:102F70001188BFF34F8FBFF36F8FFEE7206B00F018
:102F80007DFF2046BDE8104000F078BF10BD000076
:102F900010484FF44051420706D0C01D0D4920F0A3
:102FA0000700411AC1F540510B4A00230144C2E910
:102FB00000030839183A21F0070111604B600B60DB
:102FC0000B1AC0E9001393604FF00040536050614A
:102FD00070470000CC0E002080000020144E154CDD
:102FE000A6F29C474FF08058DFF84C9012E000BFEB
:102FF00000F010FFF068C568281D00F0A4FEA0686E
:10300000401EA0606068401E606000F023FF2846FC
:10301000FFF7A3FF60680028EAD138680128F9D9D2
:10302000C9F80080BFF34F8FBFF36F8FF2E7000046
:10303000D00600201400002004ED00E0002807D096
:103040000021816001600B460A46C16001F042BB6D
:103050007047000070B51D46049C61B1C4F80020A3
:10306000C4E90F010121204601F0F0FA84F8505024
:103070000020A06470BD2460F2E700002DE9F05F3D
:103080008846DDE90B941546834691009A460A9ED0
:10309000A522206BFDF735FB6FF00301206B01EBE0
:1030A0008501084420F00707780707D0502080F3F7
:1030B0001188BFF34F8FBFF36F8FFEE70025B8F184
:1030C000000F0FD05FF00000221818F8001082F8EF
:1030D000341018F8001011B1401C1028F4D384F8F3
:1030E000435001E084F83450382E00D33726E6628E
:1030F000C4E91365201D00F066FE04F1180000F01D
:1031000062FE2461C6F138006462A061656584F8DE
:10311000585052465946384600F0D4FA2060B9F16A
:10312000000F01D0C9F80040BDE8F09F2DE9F0473D
:103130001E46DDE9089417460D00804615D0002C88
:1031400011D0FFF795FE04F11801C4F8008081E862
:103150006002201D00F037FE002F04D014F8280F65
:1031600040F004002070BDE8F087502080F3118803
:10317000BFF34F8FBFF36F8FFEE7000030B51149EB
:1031800000E011460A688242FBD34B685C18844217
:1031900003D1406818444860084643681C189442AC
:1031A00009D1084C183C2468A24209D052681A443C
:1031B00042600A6812680260814200D0086030BD37
:1031C0000460F9E78000002070B5002441600B4DD9
:1031D0000061914206D8D11A8269914206D2011D3E
:1031E000286907E09A4203D2994201D3012403E0FF
:1031F000011DE86800F0EAFD204670BD5000002087
:1032000010B5044600F006FEA06B28B15FF0000484
:1032100000F020FE204610BD0124F9E7F1B500269C
:103220000098846C5CB1A16BE06B81420FD350209D
:1032300080F31188BFF34F8FBFF36F8FFEE75020ED
:1032400080F31188BFF34F8FBFF36F8FFEE7A16B41
:1032500081420CD294F94550002269462046FFF77E
:1032600046FE0646681C04D06D1C84F84550304666
:10327000F8BD606A0028FAD004F1240001F03AFE9B
:103280000028F4D00126F2E730B589B03C4D6EE05D
:103290000498002806DADDE90601059A90470498AB
:1032A000002864DB069C606910B1201D00F04BFD16
:1032B00003A800F0D7F8024604980A2857D2DFE89E
:1032C00000F00505052D334A05052D3394F8280037
:1032D00040F0010084F828000599A069059B01448D
:1032E0002046FFF771FF68B3216A2046884794F8AB
:1032F000280040073BD5002000900598A1690023D5
:1033000042181946204601F0D9FED8B9502080F362
:103310001188BFF34F8FBFF36F8FFEE714F8280FAC
:1033200020F00100207022E094F8280040F0010015
:1033300084F828000598A06128B18118134620461A
:10334000FFF742FF13E0502080F31188BFF34F8F47
:10335000BFF36F8FFEE794F82800810703D420465F
:1033600000F08CFD03E020F0010084F8280000222A
:1033700004A9286801F0D6FA002889D109B030BD27
:10338000500000202DE9FC410F46054600F06EFF7D
:1033900001A800F067F80446019818B101F0E2FDB9
:1033A000BDE8FC81254EAFB130690068D0B300277D
:1033B000291B3A46306800F0E3FD01F0D3FD0028F8
:1033C000EED11F494FF080500860BFF34F8FBFF31D
:1033D0006F8FE5E7A542EBD801F0C4FDF068274602
:1033E000C068C468201D00F0AEFC94F828004107B6
:1033F00019D5A0692B4641193A462046FFF7E4FE4D
:10340000A8B100200346014600902A46204601F05C
:1034100055FE60B9502080F31188BFF34F8FBFF382
:103420006F8FFEE707E020F0010084F82800216A92
:1034300020468847B4E70127BAE700005000002083
:1034400004ED00E00648416B096829B1416BC96889
:10345000C9684968816270474FF0FF31FAE70000A0
:103460001400002070B5054601F05EFC064E0446CF
:10347000B068844203D200F009F8012000E0002087
:1034800028602046B46070BD50000020F8B5194D8A
:1034900020E0C068C4680668201D00F054FC216A62
:1034A0002046884794F82800400713D5A069304487
:1034B000B04206D924616060211DE86800F086FCF6
:1034C00008E000200346014600903246204601F005
:1034D000F5FD38B1E86801680029DAD12969C5E944
:1034E0000310F8BD502080F31188BFF34F8FBFF356
:1034F0006F8FFEE75000002008484068401C4FF0E6
:10350000500080F3118804D0BFF34F8FBFF36F8F4B
:10351000FEE7BFF34F8FBFF36F8FFEE788000020F9
:103520000346002012B1994302D070470B42FCD0F1
:1035300001207047074CE068016841B1C068002174
:10354000D0F80000FFF71EFFFFF79EFEF3E7012112
:103550000020F7E7500000202DE9F041044600F07C
:1035600059FC94F9455004F124060FE0A06C18B101
:103570002046FFF753FE04E0606A48B1304601F090
:10358000B9FC08B100F04CFD6D1E6DB2002DEDDCF4
:103590004FF0FF3684F8456000F05CFC00F03AFC28
:1035A00094F9445004F1100709E0206948B1384605
:1035B00001F0A0FC08B100F033FD6D1E6DB2002DCE
:1035C000F3DC84F84460BDE8F04100F043BC000047
:1035D0002DE9F0410546002700F048FE324E3068E4
:1035E00008B9FFF7D5FC706905424ED1C5B308355F
:1035F00068070ED005F00700C0F108000544680711
:1036000007D0502080F31188BFF34F8FBFF36F8F27
:10361000FEE72DB37068854237D82348183001463D
:103620000C6801E020460C466168A94202D221687C
:103630000029F7D131688C4227D0076821680160E2
:1036400060680837411B10290FD96019420708D05C
:10365000502080F31188BFF34F8FBFF36F8FFEE7C9
:1036600013E041606560FFF789FD61687068401A8A
:103670007060B268904200D2B0607069014300206F
:10368000C4E90001F068401CF06001F06BFC7807B1
:1036900007D0502080F31188BFF34F8FBFF36F8F97
:1036A000FEE73846BDE8F08168000020044908685C
:1036B00018B10868026D521C026508687047000066
:1036C0001400002010B5031F4FF080741C601B1FF6
:1036D00021F001011960191F024B0B6014394038A9
:1036E0000A6010BDF934000810B50448FEF7C0FFA9
:1036F000BDE810400248FEF7BBBF0000CC3F0020F1
:10370000D44100202DE9F04188B00F002ED00128CF
:1037100002D0174D50B100E0164D0023202269461B
:1037200000F054FA06460024E8461DE0002220215D
:10373000684600F079FAF5E718F804102846FEF715
:1037400059FF80B129463846D5F80022FCF7A7FF7B
:10375000D5F80002C7F800022846FEF789FF0120CD
:1037600008B0BDE8F081641CB442E5D30020F7E75F
:10377000CC3F0020D441002070B598B392B30C29FF
:103780003CD30378682B39D1C378682B36D14418E1
:1037900014F8013C162B31D1B0F8013003F00305C9
:1037A000022D2BD19B0855715382062B26D35B1D0E
:1037B0008B4223D1037993710023C5186D79D554B9
:1037C0005B1C052BF9D3538A00F10A059B1FC2E944
:1037D000025314F8025C0024001DA1F1060108D078
:1037E000002303E00AE0C65C5B1C34448B42FAD33E
:1037F000E0B21574854201D1012070BD002070BD7A
:103800000021A0F80012A0F802127047B0F80022C0
:10381000B0F802329A4201D100207047B0F802227B
:10382000825C0A70B0F80212491CC1F30801A0F8CA
:10383000021201207047B0F80022B0F80232521C88
:10384000C2F30802934204D0B0F80032C154A0F889
:103850000022704700224FF480710148FDF7FCBA46
:103860000008014008B1012200E000224FF48071FD
:103870000148FDF7F1BA00000008014038B50F4CCF
:1038800001202070E068002816D000252B462A462B
:103890000321009501F012FC00950023084A042141
:1038A000E06801F00BFC01F03FFA024600950023AE
:1038B0000121E06801F002FC38BD0000A8000020F2
:1038C000C0D4010070B5044600E0641C25782DB119
:1038D000FCF7FCFC0068405DC007F6D1204670BDD7
:1038E000002806D0002904D0012201F50171FEF75D
:1038F00011B970470149002008707047A8000020E6
:10390000154E164C164DC6B04FF0FF384FF4FA77EF
:1039100042466946306801F005F80128F8D1207860
:103920000028F5D1607848B1DDE90010401A03287D
:10393000EEDB0121286800F0E1FCE9E7DDE90001A8
:10394000401A032805DA0298B84202D803981E28C4
:10395000DED90221EEE70000A0000020A800002030
:1039600094000020134E144C144DADF5027D4FF021
:10397000FF373946306801F071F8236898420AD160
:1039800000226946184600F0CDFF0128F1D16846B3
:10399000FEF7C4FCEDE72B689842EAD100226946A5
:1039A000184600F0BFFF0128E3D16846FEF7F2FC9D
:1039B000DFE70000A4000020980000209C00002009
:1039C0000E4C0F4DC6B04FF48A764FF0FF3731469C
:1039D0006846FCF79EFE606810B1394601F048F871
:1039E00069466078FEF754FC0028F0D000231A46A0
:1039F0006946286800F06EFEE9E70000A800002094
:103A0000A00000200E4D0F4CADF5027D694601204F
:103A1000FFF778FE28B100231A466946286800F0AF
:103A200059FE69460020FFF76DFE28B100231A46B3
:103A30006946206800F04EFE052000F0C3FAE5E775
:103A40009C0000209800002008B5DFF86080184E28
:103A50004FF0FF374FF000094FF0010A00970023A5
:103A600001220321D8F8000000F08EFC0446FDF787
:103A7000F9F90546E0070AD029460020FEF7B2FC16
:103A800086F80190002000F019F8FFF7F7FEA00774
:103A9000E4D529460120FEF7A5FC86F801A0012007
:103AA00000F00CF8FFF7EAFED8E7000094000020D1
:103AB000A800002000F04EB800F0E4B810B5074CA4
:103AC000207040B10649A16000F01EF9A068BDE871
:103AD000104000F079B80349F5E70000C800002065
:103AE00064010020D40000200A46014602484FF439
:103AF000FA63806800F01AB9C80000200A4601463F
:103B00004FF4FA63014800F011B900001C010020D5
:103B100010B5012805D0FEF7C9FEBDE81040FFF73B
:103B20006FBE03490020A1F80002A1F8020210BDF7
:103B3000E8470020002130B1044800BFA0F800127F
:103B4000A0F8021270470248F8E70000E2450020A2
:103B5000DC430020154910B50020A1F80002A1F8AF
:103B6000020201F20621A1F80002A1F8020201F20C
:103B70000621A1F80002A1F802020D4908700B49C4
:103B80000C48FFF7ADFE0C490C48FFF7A9FE0C49A5
:103B90000C48FFF7A5FE2520FEF764FE2620FEF761
:103BA00061FEBDE810402720FEF75CBEDC4300202C
:103BB000C4000020D4000020E84700201C010020A1
:103BC000E245002064010020704700002DE9F84F15
:103BD0009A4615460E46012817D0FEF767FE814625
:103BE0000024FDF73FF907468EB185B1A046AC42EF
:103BF00015D28DF8008069464846FFF707FE48B1A8
:103C00009DF800003055641CF1E70648E7E7002006
:103C1000BDE8F88FFDF726F9C11B5145E7D32046D3
:103C2000F6E70000E84700202DE9F84390460D46EE
:103C300006460024FDF716F9074600208DF800001F
:103C400006B1B5B90020BDE8F88369460B48FFF717
:103C5000DDFD20B969460A48FFF7D8FD20B19DF87F
:103C600000003055641C04E0FDF7FCF8C11B414521
:103C700001D2AC42E9D32046E5E70000DC43002056
:103C8000E245002013460A4601460248007800F04B
:103C900003B80000C40000202DE9F84F1F469146EC
:103CA0000D4660B1164800248246FDF7DBF8064653
:103CB00015B1B9F1020F18D20020BDE8F88F1148F4
:103CC000F1E700BF8DF8008069465046FFF79EFD82
:103CD00068B19DF800000A280ED00D2807D0611C9D
:103CE000494504D22855641C01E04FF00008FDF757
:103CF000B9F8801BB842E5D305F804802046DCE71C
:103D0000E2450020DC4300200149087070470000B4
:103D1000C400002010B5044C6068002803D10120C5
:103D200000F031FC606010BDC800002010B51446E2
:103D300028B121B11CB1A2B2FDF72CFF08B10020BF
:103D400010BD204610BDD0E9013201699A60D0E96A
:103D500001235A604A68824201D182684A60002287
:103D600002610868401E08600868704704490868D6
:103D70000A688069D26A0968C2F138028A617047AC
:103D800014000020034B036003F15C0008608020F6
:103D90001060704714080020044B036003F15C00BE
:103DA00008604FF48070106070470000700A0020B7
:103DB00000F108014FF0FF32C0E90112C16001615A
:103DC00000210160704700210161704730B50B6828
:103DD0005A1C02D000F1080202E0026904E0224607
:103DE000546825689D42FAD953684B6099608A608F
:103DF000516008610168491C016030BD42684A6039
:103E000093688B6093685960916008610168491CF0
:103E100001607047502080F31188BFF34F8FBFF3CC
:103E20006F8F0A494868401C486001280CD1084837
:103E3000006810F0FF0F07D0502080F31188BFF307
:103E40004F8FBFF36F8FFEE77047000088000020A0
:103E500004ED00E00849486828B1401E486001D1DF
:103E600080F311887047502080F31188BFF34F8F83
:103E7000BFF36F8FFEE700008800002070B50028B8
:103E80002AD0164DA0F1080460686969084207D17C
:103E9000502080F31188BFF34F8FBFF36F8FFEE781
:103EA00022683AB1502080F31188BFF34F8FBFF3DF
:103EB0006F8FFEE78843606000F0D8F9606869683A
:103EC000084468602046FFF759F92869401C2861BA
:103ED000BDE8704001F046B870BD000068000020E9
:103EE0004FF0E02000210161816105494FF47A72B1
:103EF0000968B1FBF2F1491E416107210161704778
:103F00001000002010B5FCF7BDF9114910280ED3A0
:103F100000F1E02090F8F0030A78904207D2502098
:103F200080F31188BFF34F8FBFF36F8FFEE709480F
:103F30000068896800F4E060884207D9502080F367
:103F40001188BFF34F8FBFF36F8FFEE710BD0000E6
:103F5000880000200CED00E010B5084B002200BFE7
:103F600053F832401CB1521C082AF9D310BD43F853
:103F7000321003EBC201486010BD0000F4010020C4
:103F800070B515460E460446FFF744FF94F94410F9
:103F90000020491C01D184F8440094F94510491CC3
:103FA00001D184F84500FFF755FFA06B28B92A46D8
:103FB000314604F1240000F051F82046BDE870407D
:103FC000FFF7CABA10B5020014D00F48006B38B121
:103FD000502080F31188BFF34F8FBFF36F8FFEE740
:103FE00000F044F900211046FEF7ACFE00F0BAFFE5
:103FF000002807D105494FF080500860BFF34F8F6C
:10400000BFF36F8F10BD00001400002004ED00E02E
:1040100002490A6A0260C9684160704714000020C2
:1040200001490120C86170471400002010B50C46FA
:1040300050B1094909681831FFF7C8FE2046BDE8AC
:1040400010400121FEF77EBE502080F31188BFF39F
:104050004F8FBFF36F8FFEE71400002070B514463A
:104060000D4668B10A4909681831FFF7C7FE0CB15F
:104070004FF0FF3521462846BDE87040FEF762BE8E
:10408000502080F31188BFF34F8FBFF36F8FFEE78F
:104090001400002010B51446030011D01048026B24
:1040A000B2B1026841F000419161016818461831CF
:1040B000FFF7A4FE2046BDE810400121FEF742BEF6
:1040C000502080F31188BFF34F8FBFF36F8FFEE74F
:1040D000502080F31188BFF34F8FBFF36F8FFEE73F
:1040E0001400002070B504003ED0226DA2B1E06C37
:1040F000884200D30146E06A884235D0012A33D194
:104100001A4D2A6894420FD1502080F31188BFF3D2
:104110004F8FBFF36F8FFEE7502080F31188BFF3FE
:104120004F8FBFF36F8FFEE7E162A269002A02DBC7
:10413000C1F13801A1610E4E00EB8000616906EB10
:104140008000814210D1201DFFF7FDFDE06A296942
:10415000884200D9286100EB800006EB8000211D19
:10416000BDE87040FFF74ABE70BD0000140000209B
:104170003402002070B5194D2A6BF2B141F00041B4
:104180000160C4680CB3FFF7DEFD201DFFF7DBFD07
:10419000E06A2969884200D92861114900EB800052
:1041A00001EB8000211DFFF729FEE06A2968C96A3A
:1041B000884201D90120E86170BD502080F3118848
:1041C000BFF34F8FBFF36F8FFEE7502080F311884E
:1041D000BFF34F8FBFF36F8FFEE700001400002086
:1041E0003402002030B587B00024039405AA04A946
:1041F00003A80494FFF7C6FDDDE903010094CDE9AF
:104200000110002315A11748059A00F054FD164D22
:104210000028E8621FD000F021FF012809D0401CCF
:1042200019D1502080F31188BFF34F8FBFF36F8FE8
:10423000FEE7502080F31188BFF34F8FBFF36F8FDD
:104240004FF0FF30A86201206861EC6007B0BDE864
:10425000304000F01DB907B030BD000049444C4566
:1042600000000000DD2F0008140000200248016B50
:10427000491C01637047000014000020164810B567
:10428000016B11B10121C16110BD0021C161016942
:10429000124A01E0B9B1491E01EB810352F8233003
:1042A000002BF7D001EB810302EB830202F108043B
:1042B00053685B685360A34201D15B685360DA685E
:1042C0000260016110BD502080F31188BFF34F8F51
:1042D000BFF36F8FFEE700001400002034020020BF
:1042E00070B52020FFF774F9040005D00025201DCB
:1042F0002560FFF75DFD2577204670BD2DE9F04173
:104300000027884604000AD05FEA18600FD05020CA
:1043100080F31188BFF34F8FBFF36F8FFEE75020FC
:1043200080F31188BFF34F8FBFF36F8FFEE7261D19
:1043300004F10C05FFF79AFF2168F06841EA0801D3
:10434000216017E0D0E9001601F07F425301236895
:1043500021F07F4102D40B4203D10AE031EA03038A
:1043600007D1D20100D50F43216841F00071FFF75A
:1043700001FF3046A842E5D12068B843206000F034
:10438000F1FD2068BDE8F0812DE9F0479A46DDF89F
:10439000209090460D4604004FF0000709D0280EEB
:1043A0000FD0502080F31188BFF34F8FBFF36F8F72
:1043B000FEE7502080F31188BFF34F8FBFF36F8F5C
:1043C000FEE71DB100F0A2FC40B112E0502080F3E6
:1043D0001188BFF34F8FBFF36F8FFEE7B9F1000F66
:1043E00007D0502080F31188BFF34F8FBFF36F8F3A
:1043F000FEE7FFF73BFF2668524629463046FFF7A7
:104400008FF830B1B8F1000F1AD02068A8432060AF
:1044100016E0B9F1000F13D0B8F1000F01D04FF042
:104420008077BAF1000F01D047F0806745EA0701B5
:104430004A46201DFFF72EFE00F094FD18B10AE059
:1044400000F090FD1FE011494FF080500860BFF36D
:104450004F8FBFF36F8FFFF789FC0646800110D4A2
:10446000FFF7D8FC2668524629463046FFF758F831
:1044700028B1B8F1000F02D02068A8432060FFF7F0
:10448000E9FC26F07F463046BDE8F08704ED00E009
:104490001CB5264908780190FF20087008788DF82F
:1044A00000009DF800009DF8002000F0F000904210
:1044B00007D0502080F31188BFF34F8FBFF36F8F69
:1044C000FEE79DF800001A4C00F050002070072015
:1044D000A06005E09DF8002052008DF80020401EED
:1044E0009DF800201206F5D4A060032807D05020C4
:1044F00080F31188BFF34F8FBFF36F8FFEE74FF448
:104500004070A060019808700A48016841F4700189
:104510000160016841F070410160FFF7E1FC00209B
:104520006060FBF779FE00201CBD000000E400E0A5
:104530008800002020ED00E010B5502080F31188A5
:10454000BFF34F8FBFF36F8F00F0F4FB18B1044936
:104550004FF080500860002080F3118810BD0000EB
:1045600004ED00E070B50D460446FFF753FCA06C67
:1045700008B9A06B08B1002401E0A5640124FFF78D
:1045800069FC204670BD10B502460021012000F0F4
:1045900009F80446FEF752FD204610BD0022042112
:1045A000AFF30080F8B517460E46050013D005FBA3
:1045B00006F05430FFF70CF804000AD0002084F80D
:1045C000460004F154023B46314628460094FEF76B
:1045D00041FD2046F8BD502080F31188BFF34F8F76
:1045E000BFF36F8FFEE738B5049D18B153B1CAB160
:1045F00081B120E0502080F31188BFF34F8FBFF3CB
:104600006F8FFEE7502080F31188BFF34F8FBFF309
:104610006F8FFEE7502080F31188BFF34F8FBFF3F9
:104620006F8FFEE739B1502080F31188BFF34F8FB1
:10463000BFF36F8FFEE754241C46012384F84630F5
:104640002B460094FEF706FD204638BD70B50D469A
:10465000040025D0FFF7DEFBD4E90F20216802FB20
:104660000011A1600021A163216861600A46D4E9BC
:104670000F01401E00FB0121E16021464FF0FF3099
:1046800001F8440F487004F110008DB1FFF790FB62
:1046900004F12400FFF78CFBFFF7DCFB012070BD69
:1046A000502080F31188BFF34F8FBFF36F8FFEE769
:1046B00021690029F0D000F01DFC0028ECD004494D
:1046C0004FF080500860BFF34F8FBFF36F8FE3E769
:1046D00004ED00E02DE9FF4782B01D468A464FF009
:1046E0000008040003D0BAF1000F08D011E05020F8
:1046F00080F31188BFF34F8FBFF36F8FFEE7206CFD
:1047000038B1502080F31188BFF34F8FBFF36F8F04
:10471000FEE7022D0AD1E06B012807D0502080F37C
:104720001188BFF34F8FBFF36F8FFEE700F0EEFAF3
:10473000454F4FF000094FF0805648B9049838B102
:10474000502080F31188BFF34F8FBFF36F8FFEE7C8
:10475000FFF760FBA06BE16B884207D3022D05D009
:10476000049838B3B8F1000F27D02BE0D4F8388084
:104770002A4651462046FEF7BAFBA16C41B1022DF4
:1047800002D1B8F1000F0FD12046FEF747FD05E03A
:10479000616A19B104F1240000F0ACFB20B13E6065
:1047A000BFF34F8FBFF36F8FFFF754FB012006B0AD
:1047B000BDE8F087FFF74EFB22E06846FFF728FCD4
:1047C0004FF00108FFF746FBFFF750FDFFF722FB14
:1047D00094F94400401C01D184F8449094F94500B8
:1047E000401C01D184F84590FFF734FB04A96846CA
:1047F00000F0FAF930B12046FEF7AEFE00F0B2FB51
:104800000020D4E7FFF706FBA06BE16B884213D1D1
:10481000FFF720FB04F110000499FFF707FC204686
:10482000FEF79AFE00F09EFB002891D13E60BFF398
:104830004F8FBFF36F8F8BE7FFF70CFB2046FEF720
:104840008BFE00F08FFB83E704ED00E02DE9F047DD
:104850001F4616468A46040003D0BAF1000F08D05E
:1048600011E0502080F31188BFF34F8FBFF36F8F9B
:10487000FEE7206C38B1502080F31188BFF34F8FD2
:10488000BFF36F8FFEE7022F0AD1E06B012807D03C
:10489000502080F31188BFF34F8FBFF36F8FFEE777
:1048A000FFF730FB5021EFF3118081F31188BFF344
:1048B0004F8FBFF36F8F8046A06BE16B884207D3A9
:1048C000022F05D05FF0000088F31188BDE8F08763
:1048D00094F94550D4F838903A4651462046FEF7B0
:1048E00006FB681C04D06D1C84F845500120EBE7E2
:1048F000A06C012540B1022F02D1B9F1000FF5D112
:104900002046FEF78BFC06E0606A0028EED004F13A
:10491000240000F0EFFA0028E8D0002EE6D0356041
:10492000E4E700002DE9F747002683B08A4604003B
:1049300003D0BAF1000F08D011E0502080F31188A5
:10494000BFF34F8FBFF36F8FFEE7206C38B150205D
:1049500080F31188BFF34F8FBFF36F8FFEE700F036
:10496000D5F9DFF8F4804FF000094FF0805748B9CF
:10497000059838B1502080F31188BFF34F8FBFF3F3
:104980006F8FFEE7FFF746FAA56BC5B1514620468B
:10499000FEF79AFA6D1EA563206950B104F110006C
:1049A00000F0A8FA28B1C8F80070BFF34F8FBFF32A
:1049B0006F8FFFF74FFA012006B0BDE8F08705982A
:1049C00008B11EB106E0FFF745FA27E06846FFF799
:1049D0001FFB0126FFF73EFAFFF748FCFFF71AFA24
:1049E00094F94400401C01D184F8449094F94500A6
:1049F000401C01D184F84590FFF72CFA05A96846C0
:104A000000F0F2F8002820460AD0FEF7A5FD00F0DD
:104A1000A9FA2046FEF7F4FB0028B3D00020CBE72C
:104A2000FEF7EEFB90B104F124000599FFF7FEFAC2
:104A30002046FEF791FD00F095FA0028A2D1C8F8B3
:104A40000070BFF34F8FBFF36F8F9BE72046FEF7D9
:104A500083FD00F087FA95E704ED00E008B5002239
:104A600000920A466946FFF75DFF009808BD000006
:104A70002DE9F343002683B00400354609D0206CAD
:104A800078B1502080F31188BFF34F8FBFF36F8F41
:104A9000FEE7502080F31188BFF34F8FBFF36F8F75
:104AA000FEE700F033F9DFF83C814FF000094FF0EA
:104AB000805748B9049838B1502080F31188BFF36B
:104AC0004F8FBFF36F8FFEE7FFF7A4F9A06BC8B15C
:104AD000401EA063206810B9FEF7E8FDA0602069C1
:104AE00050B104F1100000F005FA28B1C8F80070C8
:104AF000BFF34F8FBFF36F8FFFF7ACF9012005B005
:104B0000BDE8F083049808B166B10FE03DB15020D4
:104B100080F31188BFF34F8FBFF36F8FFEE7FFF76E
:104B200099F95DE06846FFF773FA0126FFF792F9FD
:104B3000FFF79CFBFFF76EF994F94400401C01D18C
:104B400084F8449094F94500401C01D184F84590C4
:104B5000FFF780F904A9684600F046F800282046CF
:104B600012D0FEF7F9FC00F0FDF92046FEF748FBF5
:104B70000028A9D09DB3FFF74DF9606A50B3206BB0
:104B80000068C0F1380126E0FEF73AFBE0B120688A
:104B900038B9FFF73FF9A06800F070F90546FFF754
:104BA00059F904F124000499FFF740FA2046FEF772
:104BB000D3FC00F0D7F9002886D1C8F80070BFF305
:104BC0004F8FBFF36F8F7FE72046FEF7C5FC00F0E5
:104BD000C9F979E70021A068FFF784FA9FE7FFE7AA
:104BE00000208CE704ED00E02DE9F0410C460500C3
:104BF00011D0C4B1FFF70EF9174BDA686E68206860
:104C0000911B471C17D02F681B6A9F4219D09642F0
:104C100017D8012410E0502080F31188BFF34F8F84
:104C2000BFF36F8FFEE7502080F31188BFF34F8FE3
:104C3000BFF36F8FFEE70024FFF70CF92046BDE8B5
:104C4000F081884205D9401A20602846FFF7E0F934
:104C5000F1E700202060DCE7140000202DE9FF5F71
:104C60008346DDE90E87994616468A469000FEF790
:104C7000AFFC05001CD05C20FEF7AAFC040014D099
:104C80000020256384F85900CDE90240CDE9008772
:104C90004B46324651465846FEF7F0F92046FEF79D
:104CA0007FF8012004B0BDE8F09F2846FFF7E6F842
:104CB0004FF0FF30F6E7F0B585B0DDE90B640A9DF3
:104CC000A6B1DCB15C2700972663022684F8596000
:104CD000002604AFCDE90246CDE90057FEF7CEF934
:104CE0002046FEF75DF8049805B0F0BD502080F333
:104CF0001188BFF34F8FBFF36F8FFEE7502080F313
:104D00001188BFF34F8FBFF36F8FFEE705484169EE
:104D100019B1006B18B100207047012070470220C4
:104D200070470000140000200148C0687047000070
:104D3000140000202DE9F0412E4C0027206B28B1F3
:104D4000A069401CA0613846BDE8F081E668761C89
:104D5000E66013D1606B006838B1502080F3118891
:104D6000BFF34F8FBFF36F8FFEE7606BA16B616383
:104D7000A063206A401C2062FEF764FBA06ADFF893
:104D80007880864209D3606B0068A0B1606BC06810
:104D9000C5686868864211D2A0622068C06A00EBCC
:104DA000800158F82100012800D90127E069002876
:104DB000C9D00127C7E74FF0FF30EDE7281DFEF708
:104DC000C2FFA86A18B105F11800FEF7BCFFE86A37
:104DD0002169884200D9206100EB800108EB810045
:104DE000291DFFF70BF8E86A2168C96A8842CAD30F
:104DF0000127C8E7140000203402002070B5040029
:104E00004FF0000133D01B4D2868844207D050205A
:104E100080F31188BFF34F8FBFF36F8FFEE7206DD4
:104E200038B1401E2065E36CE26A9A421FD040B15F
:104E30001DE0502080F31188BFF34F8FBFF36F8FB9
:104E4000FEE7201DFEF77FFFE06CE062C0F1380056
:104E5000A061E06A2969884200D92861064900EB0F
:104E6000800001EB8000211DFEF7C8FF01210846EC
:104E700070BD0000140000203402002070B5040052
:104E80004FF000002BD0194DE16A2A68D26A914296
:104E900026D2A069002804DB2868C06AC0F1380067
:104EA000A061134E01EB8101606906EB810188422C
:104EB00011D1201DFEF747FF2868C06AE06229690A
:104EC000884200D9286100EB800006EB8000211D9C
:104ED000FEF794FF02E02868C06AE062012070BD1E
:104EE000E16C2A68D26A9142F8D370BD14000020A8
:104EF0003402002070B5C068C46854B104F11800D1
:104F00000646FEF720FF144D286B50B1314613487A
:104F100015E0502080F31188BFF34F8FBFF36F8FE0
:104F2000FEE7201DFEF70FFFE06A2969884200D9DD
:104F300028610B4900EB800001EB8000211DFEF78A
:104F40005DFFE06A2968C96A884202D90120E861E8
:104F500070BD002070BD000014000020BC060020C1
:104F6000340200202DE9F0472C4D00242746286B01
:104F700038B1FEF74FFF286B401E2863286B40B105
:104F800046E0502080F31188BFF34F8FBFF36F8F3F
:104F9000FEE7A968224E0120D1B3A6F591698046AB
:104FA0003068E0B1F068C46804F11800FEF7CBFE89
:104FB000201DFEF7C8FEE06A2969884200D92861F1
:104FC00000EB800109EB8100211DFEF717FFE06A6D
:104FD0002968C96A8842E3D3C5F81C80E0E70CB1B0
:104FE000FEF730FAAC694CB14FEA0806FFF7A2FEB3
:104FF00000B1EE61641EF9D10020A861E86938B102
:105000000849012738070860BFF34F8FBFF36F8F40
:10501000FEF720FF3846BDE8F087000014000020AE
:10502000BC06002004ED00E02DE9FC4781461E4649
:10503000174688462C200A9DFEF7CAFA04000AD0BB
:10504000002084F82800CDE9005433463A46414612
:105050004846FEF76BF82046BDE8FC8710B586B0E1
:10506000FDF706FF114C2068B8B1002003900490B2
:1050700005AA04A903A8FEF78FFEDDE9032102209B
:105080008DE8070000230AA10B48059AFFF713FEDD
:10509000606010B106B0012010BD502080F311886F
:1050A000BFF34F8FBFF36F8FFEE70000500000206B
:1050B000546D722053766300353500082DE9FF41A9
:1050C0001E46134602000A9D4FF0000016D0144CF5
:1050D0002768002F0FD0CDE900130292062917DAB6
:1050E000FFF714FE02284FF000030FD0002269469C
:1050F0002068FFF7EFFA04B0BDE8F081502080F39C
:105100001188BFF34F8FBFF36F8FFEE72A46EEE79C
:105110000023324669463846FFF798FBEBE700006C
:105120005000002010B500290AD00878002807D0C8
:1051300005487844FBF762FC002801D0002010BD30
:105140000248784410BD00009A0000009200000060
:10515000A051000800000000000000000000000056
:105160000000000000020000180000000000000025
:1051700000000000010202030405060708090A0BEB
:105180000C0D0E0F101000000000000000000102C6
:1051900003040607080900000000010203040000E0
:1051A00064656661756C745461736B00DC52000851
:1051B00000000020D40000006C010008B05300087B
:1051C000D40000207C4F000088010008100100007E
:1051D00043000000F8FFFFFF0040404040404040D7
:1051E00040404141414141404040404040404040BA
:1051F000404040404040404040050202020202025E
:1052000002020202020202020220202020202020AC
:1052100020202002020202020202909090909090C0
:10522000101010101010101010101010101010107E
:1052300010101010020202020202888888888888F2
:1052400008080808080808080808080808080808DE
:1052500008080808020202024000000000000000E6
:10526000000000000000000000000000000000003E
:10527000000000000000000000000000000000002E
:10528000000000000000000000000000000000001E
:10529000000000000000000000000000000000000E
:1052A00000000000000000000000000000000000FE
:1052B00000000000000000000000000000000000EE
:1052C00000000000000000000000000000000000DE
:1052D00000000000000000000000000000000000CE
:1052E00001000000100000000000000000127A0021
:1052F00000000000000000000000000000000000AE
:10530000000000000000000000000000000000009D
:10531000000000000000000000000000000000008D
:10532000000000000000000000000000000000007D
:10533000000000000000000000000000000000006D
:10534000000000000000000000000000000000005D
:10535000000000000000000000000000000000004D
:105360000000000000000000AAAAAAAA0000000095
:10537000000000000000000000000000000000002D
:10538000000000000000000000000000000000001D
:10539000000000000000000000000000000000000D
:1053A000000000000000000000000000D400002009
:0400000508000131BD
:00000001FF
